:02000000C52910
:02000800C72906
:1000100021007A3099002A009A012100151015114B
:100020009515151295121517951720008B110B12A7
:100030000B178B172100283091002100920121001D
:1000400093012100940120009101200092012000E1
:1000500093012000940122009D019C0120008C014D
:1000600022008C01210000308C0025008C0123002F
:100070008C0126008C0127009101270092012000AD
:100080008D0122008D01210000308D0025008D01A1
:1000900023008D0126008D01270094012700950182
:1000A00027008D0120008E0122008E012100FF30EB
:1000B0008E0025008E0123008E0126008E01240073
:1000C00027309200240008309500951624009601F0
:1000D000240097012400C0309400230001309C00CC
:1000E0002300A0309B00230008309F0023009030A5
:1000F0009D00230020309E0020000B100B102000DC
:10010000B201A001B40108001E2124001614161823
:1001100087282000200824009100240014188E282D
:100120001E212400161B28292000210824009100EC
:100130002400141899281E212400161B282916159E
:100140001619A028200008001E21240016141618D5
:10015000A728200000302400910024001418AE28A5
:100160001E212400161B2829200043302400910062
:1001700024001418B9281E212400161B2829200049
:1001800052082400910024001418C4281E212400C1
:10019000161B28292000530824009100240014185D
:1001A000CF281E212400161B2829200054082400D3
:1001B000910024001418DA281E212400161B282977
:1001C000200055082400910024001418E5281E2161
:1001D0002400161B282916151619EC2820000800E3
:1001E0001E21240016141618F32820002008013EB2
:1001F0002400910024001418FB281E212400161B43
:10020000282996152400141C032924002000A2008C
:100210002400161516190A290E21080023009E1C19
:100220000F2924309A009E1C132952309A00200076
:10023000220823009E1C1A299A0008001F3024005F
:1002400016052000031D1E29240014192429080066
:100250002400161516192A2923009E1C2D29243046
:100260009A009E1C312946309A0008002000B01BDD
:10027000402923001908243A20000319B017080068
:100280002000B01323001908B100563A03195E2963
:100290003108573A031970293108523A031978295D
:1002A0003108433A03197E2923009E1C5529243026
:1002B0009A009E1C592955309A00080023009E1C64
:1002C0005F2924309A009E1C63294C309A009E1CA2
:1002D000672941309A009E1C6B294D309A00080016
:1002E0009A212000A0009A212000A100842008006B
:1002F0009A212000A000F020080008009A21200088
:10030000D2009A212000D3009A212000D4009A2103
:100310002000D500A420080023009E188D29243039
:100320009A009E18912952309A0008009A212000C4
:10033000D90008002000911E9B29230019080800FD
:1003400021001112111AA1292000301BAA29B01A6C
:10035000B2290800230041309A0044309A0020005E
:10036000301308002000B012360823009A0008005D
:10037000230024309A002000350823009A00200032
:10038000B016210011160800C5290820D429200024
:10039000911ACD29111ACF29D1293621D129A0218D
:0A03A000D129200091010900D429A1
:020000040001F9
:04000E00E409FF1EE4
:00000001FF
