:02000000922A42
:02000800942A38
:1000100021007A3099002A009A012100151015114B
:100020009515151295121517951720008B110B12A7
:100030000B178B172100283091002100920121001D
:1000400093012100940120009101200092012000E1
:1000500093012000940122009D019C0120008C014D
:1000600022008C01210000308C0025008C0123002F
:100070008C0126008C0127009101270092012000AD
:100080008D0122008D01210000308D0025008D01A1
:1000900023008D0126008D01270094012700950182
:1000A00027008D0120008E0122008E012100FF30EB
:1000B0008E0025008E0123008E0126008E01240073
:1000C00027309200240008309500951624009601F0
:1000D000240097012400C0309400230001309C00CC
:1000E0002300A0309B00230008309F0023009030A5
:1000F0009D00230026309E0020000B100B102000D6
:10010000B201A001B4010800D4202400161416186E
:1001100087282000200824009100240014188E282D
:10012000D4202400161BDE28200021082400910082
:10013000240014189928D4202400161BDE28161534
:100140001619A02820000800D42024001614161820
:10015000A72820002008013E240091002400141844
:10016000AF28D4202400161BDE2896152400141C6A
:10017000B72824002000A200240016151619BE2856
:10018000C22008002000A219C828A21BCE280800FF
:100190000130B6002008B5008521FF340230B600DA
:1001A0002008B5008521FF341F30240016052000EB
:1001B000031DD42824001419DA280800FF30240075
:1001C00016151619E12808002000301A1A29B0194E
:1001D000212930192B29B0183229B01BF628230009
:1001E0001908243A20000319B01708002000B013A2
:1001F000230019082000B100563A031910293108CC
:10020000453A031930163108443A0319B01531083C
:10021000433A031927293108413A031930150800D8
:10022000230024309A004C309A002000301721001F
:10023000111608002300190820003204B200301201
:100240000800230019082000B304B01108002000A2
:10025000FF30B3000800230019082000B700301158
:10026000B0140800230019082000B010B71B47295C
:10027000371B4C29B71A5129371A5629B7195B2948
:1002800037196029B718652937186A290800B41B7F
:1002900008002000C1000800341B08002000C20034
:1002A0000800B41A08002000C3000800341A08002F
:1002B0002000C4000800B41908002000C500080090
:1002C000341908002000C6000800B41808002000F7
:1002D000C7000800341808002000C80008002100EA
:1002E0001112111A70292000301B7929B01A7F29A8
:1002F0000800230041309A0020003013080020003D
:10030000B012360823009A000800230024309A0017
:100310002000350823009A002000B0162100111695
:10032000080020004108A000B21B9B29B31BA32991
:10033000B41BAB29080020004530A1008420200018
:10034000B213B417080020004430A100842020001C
:10035000B313B4130800A420FF3A20000319B41308
:10036000080020004208A000321BBB29331BC32910
:10037000341BCB29080020004530A1008420200038
:1003800032133417080020004430A10084202000DC
:10039000331334130800A420FF3A20000319341348
:1003A000080020004308A000B21ADB29B31AE32991
:1003B000B41AEB29080020004530A1008420200059
:1003C000B212B416080020004430A100842020009E
:1003D000B312B4120800A420FF3A20000319B4128B
:1003E000080020004408A000321AFB29331A032A0F
:1003F000341A0B2A080020004530A1008420200078
:1004000032123416080020004430A100842020005D
:10041000331234120800A420FF3A200003193412CA
:10042000080020004508A000B2191B2AB319232A8E
:10043000B4192B2A080020004530A1008420200098
:10044000B211B415080020004430A100842020001F
:10045000B311B4110800A420FF3A20000319B4110D
:10046000080020004608A00032193B2A3319432A0D
:1004700034194B2A080020004530A10084202000B8
:1004800032113415080020004430A10084202000DF
:10049000331134110800A420FF3A2000031934114D
:1004A000080020004708A000B2185B2AB318632A8E
:1004B000B4186B2A080020004530A10084202000D9
:1004C000B210B414080020004430A10084202000A1
:1004D000B310B4100800A420FF3A20000319B41090
:1004E000080020004808A00032187B2A3318832A0D
:1004F00034188B2A080020004530A10084202000F9
:1005000032103414080020004430A1008420200060
:10051000331034100800A420FF3A200003193410CF
:100520000800922A0820A12A2000911A9A2A111A5A
:100530009C2A9E2AE4209E2A6F219E2A2000910157
:1005400009009121B121D121F12111223122512221
:040550007122A12A49
:020000040001F9
:04000E00E409FF1EE4
:00000001FF
