:02000000142BBF
:02000800162BB5
:1000100021007A3099002A009A012100151015114B
:100020009515151295121517951720008B110B12A7
:100030000B178B172100283091002100920121001D
:1000400093012100940120009101200092012000E1
:1000500093012000940122009D019C0120008C014D
:1000600022008C01210000308C0025008C0123002F
:100070008C0126008C0127009101270092012000AD
:100080008D0122008D01210000308D0025008D01A1
:1000900023008D0126008D01270094012700950182
:1000A00027008D0120008E0122008E012100FF30EB
:1000B0008E0025008E0123008E0126008E01240073
:1000C00027309200240008309500951624009601F0
:1000D000240097012400C0309400230001309C00CC
:1000E0002300A0309B00230008309F0023009030A5
:1000F0009D00230020309E0020000B100B102000DC
:10010000B201A001B40108001E2124001614161823
:1001100087282000200824009100240014188E282D
:100120001E212400161B28292000210824009100EC
:100130002400141899281E212400161B282916159E
:100140001619A028200008001E21240016141618D5
:10015000A728200000302400910024001418AE28A5
:100160001E212400161B2829200043302400910062
:1001700024001418B9281E212400161B2829200049
:1001800052082400910024001418C4281E212400C1
:10019000161B28292000530824009100240014185D
:1001A000CF281E212400161B2829200054082400D3
:1001B000910024001418DA281E212400161B282977
:1001C000200055082400910024001418E5281E2161
:1001D0002400161B282916151619EC2820000800E3
:1001E0001E21240016141618F32820002008013EB2
:1001F0002400910024001418FB281E212400161B43
:10020000282996152400141C032924002000A2008C
:100210002400161516190A290E21080023009E181D
:100220000F2924309A009E18132952309A0020007A
:10023000220823009E181A299A0008001F30240063
:1002400016052000031D1E29240014192429080066
:10025000FF302400161516192B2923009E182E296D
:1002600024309A009E18322946309A000800200057
:10027000B01B412923001908243A20000319B017A4
:1002800008002000B013230019082000B100563ADE
:10029000031960293108573A03196A293108523A7B
:1002A000031972293108433A0319782923009E184B
:1002B000572924309A009E185B2955309A0008006F
:1002C000230024309A004C309A002000301721007F
:1002D0001116080093212000A00093212000A10006
:1002E0008420080093212000A000F02008000800CE
:1002F00093212000D20093212000D30093212000DD
:10030000D40093212000D500080023009E188629E0
:1003100024309A009E188A2952309A0008009321AE
:100320002000D900080020009112911E9529230079
:10033000190808002300190820003204B200301206
:100340000800230019082000B304B01108002000A1
:10035000FF30B3000800230019082000B700301157
:10036000B0140800230019082000B010B71BC729DB
:10037000371BCC29B71AD129371AD629B719DB2947
:100380003719E029B718E5293718EA290800B41BFE
:1003900008002000C1000800341B08002000C20033
:1003A0000800B41A08002000C3000800341A08002E
:1003B0002000C4000800B41908002000C50008008F
:1003C000341908002000C6000800B41808002000F6
:1003D000C7000800341808002000C80008002100E9
:1003E0001112111AF0292000301BF929B01A012A24
:1003F0000800230041309A004D309A00200030134D
:1004000008002000B012360823009A0008002300DC
:1004100024309A002000350823009A002000B016EE
:1004200021001116080020004108A000B21B1D2A5F
:10043000B31B252AB41B2D2A080020004530A1003B
:1004400084202000B213B417080020004430A1001B
:1004500084202000B313B4130800F020FF3A2000DA
:100460000319B413080020004208A000321B3D2AE3
:10047000331B452A341B4D2A080020004530A100BB
:100480008420200032133417080020004430A100DB
:1004900084202000331334130800F020FF3A20009A
:1004A00003193413080020004308A000B21A5D2A83
:1004B000B31A652AB41A6D2A080020004530A1003D
:1004C00084202000B212B416080020004430A1009D
:1004D00084202000B312B4120800F020FF3A20005C
:1004E0000319B412080020004408A000321A7D2A23
:1004F000331A852A341A8D2A080020004530A100BD
:100500008420200032123416080020004430A1005C
:1005100084202000331234120800F020FF3A20001B
:1005200003193412080020004508A000B2199D2AC2
:10053000B319A52AB419AD2A080020004530A1003E
:1005400084202000B211B415080020004430A1001E
:1005500084202000B311B4110800F020FF3A2000DD
:100560000319B411080020004608A0003219BD2A62
:100570003319C52A3419CD2A080020004530A100BE
:100580008420200032113415080020004430A100DE
:1005900084202000331134110800F020FF3A20009D
:1005A00003193411080020004708A000B218DD2A02
:1005B000B318E52AB418ED2A080020004530A10040
:1005C00084202000B210B414080020004430A100A0
:1005D00084202000B310B4100800F020FF3A20005F
:1005E0000319B410080020004808A0003218FD2AA2
:1005F0003318052B34180D2B080020004530A100BE
:100600008420200032103414080020004430A1005F
:1006100084202000331034100800F020FF3A20001E
:10062000031934100800142B0820232B2000911AE2
:100630001C2B111A1E2B202B3721202BEF21202BB6
:08064000200091010900232BA9
:020000040001F9
:04000E00E409FF1EE4
:00000001FF
