:02000000C22913
:02000800C42909
:1000100021007A3099002A009A012100151015114B
:100020009515151295121517951720008B110B12A7
:100030000B178B172100283091002100920121001D
:1000400093012100940120009101200092012000E1
:1000500093012000940122009D019C0120008C014D
:1000600022008C01210000308C0025008C0123002F
:100070008C0126008C0127009101270092012000AD
:100080008D0122008D01210000308D0025008D01A1
:1000900023008D0126008D01270094012700950182
:1000A00027008D0120008E0122008E012100FF30EB
:1000B0008E0025008E0123008E0126008E01240073
:1000C00027309200240008309500951624009601F0
:1000D000240097012400C0309400230001309C00CC
:1000E0002300A0309B00230008309F0023009030A5
:1000F0009D00230020309E0020007B302000FF3038
:1001000020009A0120000B100B102000A001A90173
:10011000080035212400161416188C282000200809
:100120002400910024001418932835212400161B64
:100130003F292000210824009100240014189E2843
:1001400035212400161B3F2916151619A528230052
:100150009E1CA82824309A009E1CAC2841309A008E
:10016000200008003521240016141618B528200098
:1001700000302400910024001418BC2835212400EC
:10018000161B3F292000433024009100240014183E
:10019000C72835212400161B3F29200025082400EC
:1001A000910024001418D22835212400161B3F2961
:1001B000200026082400910024001418DD28352191
:1001C0002400161B3F29200027082400910024004A
:1001D0001418E82835212400161B3F292000280880
:1001E0002400910024001418F32835212400161B44
:1001F0003F2916151619FA2823009E1CFD282430C5
:100200009A009E1C012941309A00200008003521E7
:100210002400161416180A2920002008013E240084
:10022000910024001418122935212400161B3F299F
:1002300096152400141C1A2924002000A200240072
:100240001615161921292521080023009E1C262990
:1002500024309A009E1C2A2952309A00200022083D
:1002600023009E1C31299A0008001F302400160527
:100270002000031D3529240014193B2908002400FF
:1002800016151619412923009E1C442924309A0072
:100290009E1C482946309A00080021009112200037
:1002A000A31B592923001908243A20000319A31776
:1002B000BE292000A31323001908A400563A0319ED
:1002C00077292408573A031989292408523A03192F
:1002D00091292408433A0319962923009E1C6E296C
:1002E00024309A009E1C722955309A00BE292300A2
:1002F0009E1C782924309A009E1C7C294C309A0040
:100300009E1C802941309A009E1C84294D309A0001
:10031000BE29A4212000A000A4212000A100892042
:10032000BE29A4212000A0000721BE29A42120006D
:10033000A500A4212000A600A4212000A700A4213C
:100340002000A800B220BE2920001C15200029187A
:10035000AC292000911EA62920007B302000FF3010
:1003600020009A0123001908080020002914200009
:100370007B302000FF3020009A01080021009116F8
:100380000800C2290820D1292000911ACA299118F1
:10039000CC29CE294D21CE29B5210900200091017B
:0403A0000900D12956
:020000040001F9
:04000E00E409FF1EE4
:00000001FF
