:02000000B02925
:02000800B2291B
:1000100021007A3099002A009A012100151015114B
:100020009515151295121517951720008B110B12A7
:100030000B178B172100283091002100920121001D
:1000400093012100940120009101200092012000E1
:1000500093012000940122009D019C0120008C014D
:1000600022008C01210000308C0025008C0123002F
:100070008C0126008C0127009101270092012000AD
:100080008D0122008D01210000308D0025008D01A1
:1000900023008D0126008D01270094012700950182
:1000A00027008D0120008E0122008E012100FF30EB
:1000B0008E0025008E0123008E0126008E01240073
:1000C00027309200240008309500951624009601F0
:1000D000240097012400C0309400230001309C00CC
:1000E0002300A0309B00230008309F0023009030A5
:1000F0009D00230020309E0020007B302000FF3038
:1001000020009A0120000B100B102000A001A90173
:10011000080023212400161416188C28200020081B
:100120002400910024001418932823212400161B76
:100130002D292000210824009100240014189E2855
:1001400023212400161B2D2916151619A528200079
:1001500008002321240016141618AC2820000030B3
:100160002400910024001418B32823212400161B16
:100170002D29200043302400910024001418BE28AB
:1001800023212400161B2D2920002508240091007E
:1001900024001418C92823212400161B2D2920000F
:1001A00026082400910024001418D42823212400B8
:1001B000161B2D2920002708240091002400141864
:1001C000DF2823212400161B2D29200028082400C5
:1001D000910024001418EA2823212400161B2D293D
:1001E00016151619F12820000800232124001614E2
:1001F0001618F82820002008013E24009100240051
:100200001418002923212400161B2D2996152400DB
:10021000141C082924002000A20024001615161919
:100220000F291321080023009E1C142924309A0052
:100230009E1C182952309A002000220823009E1C80
:100240001F299A0008001F30240016052000031DF6
:100250002329240014192929080024001615161929
:100260002F2923009E1C322924309A009E1C3629F7
:1002700046309A000800210091122000A31B472954
:1002800023001908243A20000319A317AC292000E1
:10029000A31323001908A400563A0319652924085A
:1002A000573A031977292408523A03197F29240859
:1002B000433A0319842923009E1C5C2924309A00A8
:1002C0009E1C602955309A00AC2923009E1C66298B
:1002D00024309A009E1C6A294C309A009E1C6E297C
:1002E00041309A009E1C72294D309A00AC2992210F
:1002F0002000A00092212000A1008920AC29922199
:100300002000A000F520AC2992212000A500922118
:100310002000A60092212000A70092212000A80022
:10032000A920AC2920001C15200029189A2920009A
:10033000911E942920007B302000FF3020009A017C
:100340002300190808002000291420007B30200019
:10035000FF3020009A010800210091160800B02902
:100360000820BF292000911AB8299118BA29BC2960
:100370003B21BC29A3210900200091010900BF29CC
:020000040001F9
:04000E00E409FF1EE4
:00000001FF
