:02000000222BB1
:02000800242BA7
:1000100021007A3099002A009A012100151015114B
:100020009515151295121517951720008B110B12A7
:100030000B178B172100283091002100920121001D
:1000400093012100940120009101200092012000E1
:1000500093012000940122009D019C0120008C014D
:1000600022008C01210000308C0025008C0123002F
:100070008C0126008C0127009101270092012000AD
:100080008D0122008D01210000308D0025008D01A1
:1000900023008D0126008D01270094012700950182
:1000A00027008D0120008E0122008E012100FF30EB
:1000B0008E0025008E0123008E0126008E01240073
:1000C00027309200240008309500951624009601F0
:1000D000240097012400C0309400230001309C00CC
:1000E0002300A0309B00230008309F0023009030A5
:1000F0009D00230020309E0020000B100B102000DC
:10010000B201A001B40108001E2124001614161823
:1001100087282000200824009100240014188E282D
:100120001E212400161B28292000210824009100EC
:100130002400141899281E212400161B282916159E
:100140001619A028200008001E21240016141618D5
:10015000A728200000302400910024001418AE28A5
:100160001E212400161B2829200043302400910062
:1001700024001418B9281E212400161B2829200049
:1001800052082400910024001418C4281E212400C1
:10019000161B28292000530824009100240014185D
:1001A000CF281E212400161B2829200054082400D3
:1001B000910024001418DA281E212400161B282977
:1001C000200055082400910024001418E5281E2161
:1001D0002400161B282916151619EC2820000800E3
:1001E0001E21240016141618F32820002008013EB2
:1001F0002400910024001418FB281E212400161B43
:10020000282996152400141C032924002000A2008C
:100210002400161516190A290E21080023009E181D
:100220000F2924309A009E18132952309A0020007A
:10023000220823009E181A299A0008001F30240063
:1002400016052000031D1E29240014192429080066
:10025000FF302400161516192B2923009E182E296D
:1002600024309A009E18322946309A000800200057
:10027000B01B412923001908243A20000319B017A4
:1002800008002000B01323001908B100563A0319E2
:100290005F293108573A031971293108523A031975
:1002A00081293108433A0319872923009E1C5629C6
:1002B00024309A009E1C5A2955309A0008002300C9
:1002C0009E1C602924309A009E1C64294C309A00A0
:1002D0009E1C682941309A009E1C6C294D309A0062
:1002E0000800A2212000A000A2212000A10084205B
:1002F0009E1C782924309A009E1C7C2941309A004B
:100300000800A2212000A000F02008000800A2217F
:100310002000D200A2212000D300A2212000D4007E
:10032000A2212000D500080023009E189529243022
:100330009A009E18992952309A000800A2212000A4
:10034000D90008002000911EA329230019080800E5
:100350002300190820003204B200301208002300E4
:1003600019082000B304B01108002000FF30B300CA
:100370000800230019082000B7003011B01408004D
:10038000230019082000B010B71BD529371BDA2924
:10039000B71ADF29371AE429B719E9293719EE29DD
:1003A000B718F3293718F8290800B41B08002000F3
:1003B000C1000800341B08002000C2000800B41A65
:1003C00008002000C3000800341A08002000C40000
:1003D0000800B41908002000C500080034190800FE
:1003E0002000C6000800B41808002000C70008005C
:1003F000341808002000C800080021001112111A4A
:10040000FE292000301B072AB01A0F2A08002300FB
:1004100041309A0044309A00200030130800200038
:10042000B012360823009A000800230024309A00F6
:100430002000350823009A002000B0162100111674
:10044000080020004108A000B21B2B2AB31B332A4E
:10045000B41B3B2A080020004530A1008420200066
:10046000B213B417080020004430A10084202000FB
:10047000B313B4130800F020FF3A20000319B4139B
:10048000080020004208A000321B4B2A331B532ACD
:10049000341B5B2A080020004530A1008420200086
:1004A00032133417080020004430A10084202000BB
:1004B000331334130800F020FF3A200003193413DB
:1004C000080020004308A000B21A6B2AB31A732A4E
:1004D000B41A7B2A080020004530A10084202000A7
:1004E000B212B416080020004430A100842020007D
:1004F000B312B4120800F020FF3A20000319B4121E
:10050000080020004408A000321A8B2A331A932ACC
:10051000341A9B2A080020004530A10084202000C6
:1005200032123416080020004430A100842020003C
:10053000331234120800F020FF3A2000031934125D
:10054000080020004508A000B219AB2AB319B32A4D
:10055000B419BB2A080020004530A10084202000E7
:10056000B211B415080020004430A10084202000FE
:10057000B311B4110800F020FF3A20000319B411A0
:10058000080020004608A0003219CB2A3319D32ACC
:100590003419DB2A080020004530A1008420200007
:1005A00032113415080020004430A10084202000BE
:1005B000331134110800F020FF3A200003193411E0
:1005C000080020004708A000B218EB2AB318F32A4D
:1005D000B418FB2A080020004530A1008420200028
:1005E000B210B414080020004430A1008420200080
:1005F000B310B4100800F020FF3A20000319B41023
:10060000080020004808A00032180B2B3318132BC9
:1006100034181B2B080020004530A1008420200046
:1006200032103414080020004430A100842020003F
:10063000331034100800F020FF3A20000319341062
:100640000800222B0820312B2000911A2A2B111A86
:100650002C2B2E2B37212E2BFD212E2B2000910110
:040660000900312B31
:020000040001F9
:04000E00E409FF1EE4
:00000001FF
